:020000040800F2
:1000000000B20020613701081D1400089D79010825
:100010001F14000823140008271400080000000023
:100020000000000000000000000000002B14000889
:100030002D14000800000000277901088113000832
:100040007B3701087B3701087B3701087B370108C4
:100050007B3701087B3701087B3701087B370108B4
:100060007B3701087B3701087B3701087B370108A4
:100070007B370108C11800087B3701087918000890
:100080009D1800087B3701087B3701087B37010882
:100090007B3701087B3701087B3701087B37010874
:1000A0007B3701087B3701087B3701087B37010864
:1000B0007B3701087B3701087B3701087B37010854
:1000C0007B3701087B3701087B3701087B37010844
:1000D0007B370108671800088B180008AF18000864
:1000E0007B3701087B3701087B3701087B37010824
:1000F0007B3701087B3701087B3701087B37010814
:100100007B370108694100087B3701087B3701080C
:100110007B3701087B3701087B3701087B370108F3
:100120007B3701087B3701087B3701087B370108E3
:10013000DFF80CD064F0BAFE00480047810D0008DB
:1001400000B200207CB5054613F05EFB002003469C
:1001500018A219A1009019A018F0D2FB18B918A084
:1001600015F0F3FB02E01DA015F0EFFB14200821B1
:100170000B020022CDE90010214922A016F033FD28
:10018000044614B1204616F0E0FC7CBD1CB51420DA
:1001900008210B020022CDE90010AFF257011CA08C
:1001A00016F021FD044614B1204616F0CEFC0020C6
:1001B0001CBD0000656C6D002F00000073643000F2
:1001C00046696C652053797374656D20696E697436
:1001D00069616C697A6564210A00000046696C6592
:1001E0002053797374656D20696E697469616C7AE6
:1001F0006174696F6E206661696C6564210A000034
:10020000F1040008757365725F696E69740000001F
:10021000696E69740000000070B504460D46002246
:100220004FF481716948006818F082FD0646002E7F
:100230000ADA6648016866A015F087FB304618F0B8
:10024000AAFD4FF0FF3070BD00221146304618F075
:1002500014FE401C50B95D48016862A015F075FBA2
:10026000304618F098FD4FF0FF30ECE7CDB9012291
:100270002146304618F0B1FD01280AD053480168E4
:100280005DA015F062FB304618F085FD4FF0FF30A1
:10029000D9E7304618F07FFD21785CA015F055FBBA
:1002A00023E0012D18D101222146304618F0BDFD72
:1002B000012809D0454801685CA015F046FB30468E
:1002C00018F069FDA81EBEE7304618F064FD2178DD
:1002D0005BA015F03AFB08E0304618F05CFD60A02A
:1002E00015F033FB4FF0FF30ADE7304618F053FD0B
:1002F0000020A8E770B505460C4600224FF4817136
:100300003248006818F014FD0646002E0ADA2F481D
:1003100001682FA015F019FB304618F03CFD4FF096
:10032000FF3070BD00220121304618F0A6FD401CB0
:1003300050B9264801682BA015F007FB304618F08D
:100340002AFD4FF0FF30ECE7CCB940222946304679
:1003500018F043FD40280AD01C48016826A015F07B
:10036000F4FA304618F017FD4FF0FF30D9E7304669
:1003700018F011FD294642A015F0E7FA23E0012C00
:1003800018D140222946304618F04FFD402809D0A8
:100390000E48016825A015F0D8FA304618F0FBFC8D
:1003A000A01EBEE7304618F0F6FC29463CA015F02A
:1003B000CCFA08E0304618F0EEFC41A015F0C5FA82
:1003C0004FF0FF30ADE70020ABE700000000002059
:1003D0006F70656E202573206661696C65640D0A17
:1003E000000000006C7365656B20257320666169F1
:1003F0006C65640D0A00000072656164202573203D
:100400006661696C65640D0A000000006765742010
:100410006465766963652061646472202564207375
:100420007563636573730D0A000000007772697469
:1004300065202573206661696C65640D0A00000003
:1004400073657420646576696365206164647220F5
:10045000256420737563636573730D0A00000000E3
:1004600073657420646576696365206164647220D5
:10047000636D6420756E6B6E6F776E0D0A00000001
:1004800067657420646576696365206E616D6520BB
:10049000257320737563636573730D0A0000000094
:1004A00073657420646576696365206E616D65208F
:1004B000257320737563636573730D0A0000000074
:1004C00073657420646576696365206E616D65206F
:1004D000636D6420756E6B6E6F776E0D0A000000A1
:1004E00005E0052013F072F9044616F03CFCF8E72D
:1004F0007FB5054603F056FE00213D48FFF78CFE10
:100500003B4801783BA015F020FA00213E48FFF758
:10051000F1FE3E4800F0B3FA401C10B93CA015F0C3
:1005200014FA002241A1464813F03DFF05F035F9C9
:1005300006F0DCF80AF06BFF052012214FF4006290
:10054000404BCDE90032CDE9021000233E4A3FA1E5
:10055000424816F0ABFA044614B9404816F0F5FAD2
:10056000052019214FF480623D4BCDE90032CDE9E1
:10057000021000233B4A3CA13D4816F097FA04467E
:1005800014B93B4816F0E1FA052013214FF48062BC
:10059000384BCDE90032CDE902100023364A37A1AD
:1005A000394816F083FA044614B9374816F0CDFAE4
:1005B000052013214FF48062344BCDE90032CDE9A0
:1005C00002100023324A33A1344816F06FFA044671
:1005D00005204FF48062324BCDE901200093039057
:1005E0000023304A30A1314816F060FA04467FBD3E
:1005F000040000206465766963652061646472208C
:1006000069732025640D0A00E40E0020B417002051
:10061000696E69742063617264206172726179200D
:100620006661696C65640D0A00000000757365728F
:100630005F636865636B5F6576656E7400000000DC
:10064000B4330020240F0020E1040008746F7563A8
:10065000685F73637265656E0000000024170020F8
:10066000242F0020510B0008726335323200000045
:10067000243300206C380020E50D00087573657286
:100680005F636865636B00006C3C00200C410020D8
:100690001D12000877696669000000000C45002003
:1006A000DC330020A90C000872746300DC370020E2
:1006B000F0B503460C460025661E18E0A81900EBAD
:1006C000D077791001EB410003EB4000D0F8020035
:1006D000904201D10846F0BD01EB410003EB400020
:1006E000D0F80200904201D94E1E00E04D1CB542E8
:1006F000E4DD4FF0FF30EEE72DE9FC4105460F4603
:1007000090463C46464604EB440005EB4000016839
:1007100000918088ADF8040047454ADA33E000E0F4
:10072000761E06EB460005EB4000D0F80200DDF82F
:100730000210884201D3B442F2DB04EB440005EB23
:10074000400006EB460105EB41010A68026089881A
:10075000818000E0641C04EB440005EB4000D0F80D
:100760000200DDF80210884201D8B442F2DB06EB49
:10077000460005EB400004EB440105EB41010A682B
:10078000026089888180B442C9DB04EB440005EB38
:10079000400000990160BDF804108180621E394656
:1007A0002846FFF7A9FF4246711C2846FFF7A4FF21
:1007B00001E0BDE8FC8100BFFBE770B505460C46D3
:1007C00000224FF48171E148006818F0B1FA064642
:1007D000002E05DA304618F0DEFA4FF0FF3070BD1B
:1007E00000221146304618F048FB401C28B930461C
:1007F00018F0D1FA4FF0FF30F1E784B90222294610
:10080000304618F0EAFA022805D0304618F0C3FA4C
:100810004FF0FF30E3E7304618F0BDFA17E0012C47
:100820000FD102222946304618F0FFFA022804D0E0
:10083000304618F0B0FAA01ED1E7304618F0ABFAF7
:1008400005E0304618F0A7FA4FF0FF30C7E7002068
:10085000C5E770B505460C4600224FF48171BB48D0
:10086000006818F065FA0646002E05DA304618F0E2
:1008700092FA4FF0FF3070BD00220221304618F08E
:10088000FCFA401C28B9304618F085FA4FF0FF30CA
:10089000F1E784B902222946304618F09EFA022870
:1008A00005D0304618F077FA4FF0FF30E3E73046D6
:1008B00018F071FA17E0012C0FD1022229463046B8
:1008C00018F0B3FA022804D0304618F064FAA01EDB
:1008D000D1E7304618F05FFA05E0304618F05BFAD1
:1008E0004FF0FF30C7E70020C5E770B504460D465E
:1008F00000224FF481719548006818F019FA0646F5
:10090000002E05DA304618F046FA4FF0FF3070BD81
:100910002088401E00EB80100001011D002230469F
:1009200018F0ABFA401C28B9304618F034FA4FF0F2
:10093000FF30ECE725B1012D15D0022D3FD12BE082
:100940004FF482622146304618F06FFAB0F5826F9C
:1009500005D0304618F01FFA4FF0FF30D7E7304689
:1009600018F019FA31E04FF482620021204614F0A9
:1009700050FC4FF482622146304618F056FAB0F52A
:10098000826F05D0304618F006FA4FF0FF30BEE710
:10099000304618F000FA18E04FF4826221463046E3
:1009A00018F01BFAB0F5826F05D0304618F0F3F955
:1009B0004FF0FF30ABE7304618F0EDF905E0304678
:1009C00018F0E9F94FF0FF30A1E700BF00209EE7E3
:1009D0002DE9F04104460D46164600224FF4817180
:1009E0005A48006818F0A4F90746002F06DA38467E
:1009F00018F0D1F94FF0FF30BDE8F081681E00EB30
:100A00008010000100F133010022384618F035FA59
:100A1000401C28B9384618F0BEF94FF0FF30EBE71C
:100A200016B1012E22D110E010222146384618F0CE
:100A3000D4F9102805D0384618F0ADF94FF0FF3042
:100A4000DAE7384618F0A7F916E0102221463846B2
:100A500018F0EBF9102805D0384618F09CF94FF043
:100A6000FF30C9E7384618F096F905E0384618F027
:100A700092F94FF0FF30BFE700BF0020BCE72DE93F
:100A8000FC4106460025002101A8FFF796FE401C08
:100A900010B9681EBDE8FC8100216846FFF7D9FE49
:100AA000401C10B94FF0FF30F4E700224FF4817181
:100AB0002648006818F03CF90746002F05DA38464A
:100AC00018F069F94FF0FF30E4E7012429E0601ED7
:100AD00000EB80100001011D0022384618F0CDF90E
:100AE000401C28B9384618F056F94FF0FF30D1E7CE
:100AF00005EB450006EB40010622384618F06DF97B
:100B0000062805D0384618F046F94FF0FF30C1E707
:100B100005EB450006EB4000008808B1681C85B273
:100B2000641CBDF800008442D1DDBDF8040085429C
:100B300006D1BDF80400421E00213046FFF7DCFD5F
:100B4000384618F028F90020A4E70000080000202B
:100B500008B500260027B046B146B246B34603F0BA
:100B600072FF53E03848006838490860384804F09C
:100B700067FBA0B936480068844203D04FF0000AF2
:100B800033480468BAF1000F09D14FF0010AD0468A
:100B900030A014F0DAFE0121324813F082FC324812
:100BA00000682A4908602A4804F04AFBA0B928488E
:100BB0000068854203D04FF0000B25480568BBF163
:100BC000000F09D14FF0010BD94628A014F0BDFE4B
:100BD0000221244813F065FCB8F1000F06D0761C02
:100BE000322E03D34FF0000A0026B046B9F1000FB1
:100BF00006D07F1C322F03D34FF0000B0027B946DD
:100C0000052012F0E3FD009016F0ADF8AAE770B5EC
:100C100005460C4615B1012D0ED106E00C480460C6
:100C20000221104813F03DFC0BE00948046001214B
:100C30000C4813F036FC04E0294611A014F085FEA0
:100C400000BF00BF70BD0000B0000020AC0000205D
:100C50000C000020696E2063617264206576656E09
:100C6000740D0A00B4330020B40000206F757420A6
:100C700063617264206576656E740D0A0000000081
:100C8000D7B4CCACB4EDCEF3207374617465206935
:100C900073202564202C20303A20C3C5CDE22031BA
:100CA0003A20C3C5C4DA000004F0F0FA03F060FB98
:100CB00090B110A014F049FE0F2016498871092048
:100CC00048711E2008710B20887031204870002068
:100CD0000870084603F0B6FB03F04AFB10B10EA003
:100CE00014F033FE05E00A2012F070FD044616F001
:100CF0003AF8F8E744533133303720636865636B63
:100D0000206661696C65642C20696E697420697461
:100D1000210D0A0084000020696E6974206473311B
:100D2000333037206661696C6564210D0A0000006C
:100D300004460D4616A014F008FE21461EA014F02D
:100D400004FE294621A014F000FE00BFFEE710B506
:100D500000F01EFB14F029FE04F06AFD20494FF05C
:100D6000C04014F0A7FF15F0CCFC16F097FA16F06F
:100D7000A1FAFFF70BFA12F046FF15F0DEFC10BDEA
:100D800010B516F0B9FDFFF7E2FF002010BD00001E
:100D90000A0D2057726F6E6720706172616D657405
:100DA00065722076616C7565206465746563746531
:100DB00064206F6E0D0A0000202020202020206675
:100DC000696C65202025730D0A000000202020207A
:100DD0002020206C696E65202025640D0A0000002B
:100DE000000010601FB500260020039002900190C3
:100DF0000024002102A8FFF7E0FC401C10B9AFA0BE
:100E000014F0A3FD002101A8FFF723FD401C10B939
:100E1000B0A014F09AFD50E103A84FF0FF33062272
:100E200003210090B24813F09CFB0646002E1BD114
:100E3000039800F0010020B9039800F00200002898
:100E400012D0AC48BDF808100268AB48FFF730FC80
:100E50000446601C78B9039800F0010028B1A54849
:100E60000168A6A014F071FD26E1A2480168ABA0BC
:100E700014F06BFD20E104EB44009F4901EB4000BE
:100E80000088AE4908800221AC48FFF72EFDAB4830
:100E9000D0F8020004EB4401974A02EB4101D1F87B
:100EA0000210884200D008E1A44890F82E0000F01B
:100EB0008000802805D1A2A014F047FD03F093F92B
:100EC000FBE09E488079012803D0A4A014F03DFDEA
:100ED000F3E0A64B1A78D31702EB5373DF10974B4E
:100EE0001F33DB5DA14F3978CF1701EB5777FF1028
:100EF000A1EBC70C012707FA0CF73B409B4F387852
:100F0000C71700EB5777FF10A0EBC70C012707FAB4
:100F10000CF7BB4203D096A014F017FDCDE0039868
:100F2000012802D0022872D14BE0904B1A78D317D7
:100F300002EB5373DF10814B2F33DB5D8B4F39781E
:100F4000CF1701EB5777FF10A1EBC70C012707FA6A
:100F50000CF73B40854F3878C71700EB5777FF10E9
:100F6000A0EBC70C012707FA0CF7BB4203D084A003
:100F700014F0EBFCA1E07D4A1078C21700EB52722E
:100F8000D3106E4A2F32D25C784B1978CB1701EB15
:100F90005373DB10A1EBC3070123BB409A43734B90
:100FA0001878C31700EB5373DF10644B2F33DA55F7
:100FB0006248018801222F30FFF70AFD03F013F980
:100FC0004EE06A4B1A78D31702EB5373DF105B4B7A
:100FD0002F33DB5D654F3978CF1701EB5777FF1063
:100FE000A1EBC70C012707FA0CF73B405F4F38789D
:100FF000C71700EB5777FF10A0EBC70C012707FAC4
:101000000CF7BB4204D163A014F09FFC55E026E02E
:10101000564A1078C21700EB5272D310474A2F324B
:10102000D25C524B1978CB1701EB5373DB10A1EB59
:10103000C3070123BB401A43D3B24C4A1078C217EE
:1010400000EB5272D7103D4A2F32D3553B480188EE
:1010500001222F30FFF7BCFC03F0C5F800BF00BF32
:1010600000BF3648018850A014F06FFC3348D0F818
:10107000021052A014F069FC3048817953A014F09A
:1010800064FC2E49173156A014F05FFC2B49C91D92
:1010900057A014F05AFC5BA014F057FC002506E0A2
:1010A00026481F30415D5BA014F04FFC6D1C102DD5
:1010B000F6D329A014F049FC00BFADE667657420A3
:1010C00075736572206E756D206661696C65640D5F
:1010D0000A0000006765742075736572206E756D77
:1010E000206D6178206661696C65640D0A000000FE
:1010F000B43300200C000020B4170020696E206378
:10110000617264206964202558206973206E6F74B1
:101110002065786973740D0A000000006F757420F3
:1011200063617264206964202558206973206E6FA2
:10113000742065786973740D0A000000FC3C00207F
:101140000D0ABBB6D3ADB9E2C1D9A3ACB3ACBCB642
:10115000B9DCC0EDD4B1A3A10D0A00000D0ACEB4D4
:10116000BCA4BBEEA3A10D0A0000000004000020F7
:101170000D0AC8A8CFDEB2BBD7E3A3A10D0A0000B9
:101180000D0ABDF8C3C5CEB4CBA2BFA8A3A10D0A5A
:10119000000000000D0AB3F6C3C5CEB4CBA2BFA8B1
:1011A000A3A10D0A000000000D0A75736572206985
:1011B000642069732025640D0A0000006361726475
:1011C0002069642069732025580D0A0065666665EC
:1011D00063746976652069732025640D0A00000038
:1011E0006E616D652069732025730D0A0000000093
:1011F00073747564656E7420696420697320257347
:101200000D0A0000617574686F72697479206973E2
:10121000200D0A00253032582000000003F0E6F9C6
:101220000FE003F031F90A2012F0D0FA044615F06D
:101230009AFD03F072F90A2012F0C8FA044615F07C
:1012400092FDEEE710B500214FF0006012F000FAB9
:1012500010BD00B597B001214FF4F0700AF027FDE2
:10126000012108020AF0F8FC18208DF80300032081
:101270008DF802004CF20300ADF8000069465E48AC
:1012800010F034F94FF68070ADF8000069465B4805
:1012900010F02CF94FF4E060ADF8000069465648B4
:1012A00010F024F94FF23F00ADF8000069465448B1
:1012B00010F01CF93F20ADF800006946514810F0CD
:1012C00015F94FF46050ADF8000069464A4810F037
:1012D0000DF93020ADF800006946474810F006F9D6
:1012E0000320ADF800006946444810F0FFF8802064
:1012F000ADF800006946404810F0F8F84FF400706F
:10130000ADF8000069463F4810F0F0F84FF48060F7
:10131000ADF8000069463B4810F0E8F84FF4805003
:10132000ADF800006946374810F0E0F80020019061
:1013300002900220039000200490059006900790F0
:1013400004200890002009900A9010200B900020A3
:101350000C900D900E900F9010904FF480501190C3
:10136000002012901390149001A81590169008A8D0
:101370000AF028FE012104200BF03EFA17B000BD50
:1013800010B513F0F1FE12F00CFA13F0FCFE10BDD4
:1013900070B5FFF757FF1C4800684FF47A72B0FB36
:1013A000F2F1481EB0F1807F00D31BE0481E4FF0E1
:1013B000E022506150170F22002807DA13071D0E94
:1013C000124B00F00F04241F1D5503E013071C0EE1
:1013D0000F4B1C5400BF00204FF0E022906107200B
:1013E000106100BFFFF735FF00F00EFB09A014F0FD
:1013F00021FB12F0FFF970BD0014014000180140FC
:10140000001C0140002001401801002018ED00E000
:1014100000E400E07561727433000000704700BFA3
:10142000FEE700BFFEE700BFFEE770477047000021
:1014300008B5012140200AF03AFC10208DF8030085
:1014400003208DF802000420ADF8000069462E4804
:1014500010F04CF80820ADF8000069462A4810F05A
:1014600045F808BD10B5044614B1012C0AD104E0BA
:101470000421254810F017FA05E00821224810F051
:1014800012FA00E000BF00BF10BD10B5044614B151
:10149000012C0AD104E004211B4810F02FFA05E0CA
:1014A0000821194810F02AFA00E000BF00BF10BD63
:1014B00070B505460C461548007820B9FFF7B8FF0F
:1014C0000120124908706DB914B1012C08D103E054
:1014D0000020FFF7DAFF04E00020FFF7C3FF00E081
:1014E00000BF00BF012D0DD114B1012C08D103E0C4
:1014F0000120FFF7CAFF04E00120FFF7B3FF00E07F
:1015000000BF00BF70BD00000018014010000020A7
:101510007FB505460C4625B94522FB49FBA014F0D2
:10152000F0FA24B94622F849FDA014F0EAFA6E6CEC
:1015300020680090207900F00F00082803D10020D7
:10154000ADF8040008E0207900F00F00092803D16D
:101550004FF48050ADF804002079C0F3011018B9A1
:101560000020ADF8060007E02079C0F30110012843
:1015700002D14003ADF806002079C0F3811018B9FC
:101580000020ADF8080011E02079C0F38110012897
:1015900004D14FF4C060ADF8080007E02079C0F333
:1015A0008110022802D14002ADF808000020ADF8F9
:1015B0000C000C20ADF80A006946306810F0B3FC4E
:1015C0000121306810F0F3FD002004B070BD70B54B
:1015D0008CB005466C6C6E6D012240F2244120688F
:1015E00010F012FE012108460AF036FB012102200C
:1015F0000AF032FBA06811F01FFB2068001D01906B
:101600003068029000200390286DC0F38F20049072
:1016100000200590802006900020079008900990F7
:101620004FF400500A9000200B9001A9A06811F01F
:10163000DAFBE06811F08CFE01220221A06811F0B3
:101640000FFD01224021206810F088FE0121A068D2
:1016500011F098FC207C8DF8000000208DF801002E
:1016600001208DF802008DF80300684611F0A1FFFB
:101670000CB070BD2DE9F04105460E461746B84640
:1016800025B96F22AA49A1A014F03BFA6C6C032E75
:1016900029D0102E13D0112E2CD194F9040000F073
:1016A0001F0201219140A34A430942F8231000BFC1
:1016B000002240F22551206810F0A6FD1AE094F9AE
:1016C000040000F01F02012191404209920002F142
:1016D000E022C2F8001100BF012240F2255120682B
:1016E00010F092FD06E0B8F5007F02D12846FFF722
:1016F0006EFF00BF00BF0020BDE8F08170B504465A
:101700000E4624B990228C4980A014F0FAF9656C39
:101710002868868000BF2868008800F04000002804
:10172000F9D0012070BD70B5044624B99E228349CA
:1017300076A014F0E6F9656C4FF0FF362868008853
:1017400000F0200010B128688088C6B2304670BD15
:101750002DE9F0410646746C0021A06811F012FCDE
:10176000A06811F00EFD316DC1F38F210D1A606973
:10177000A84202D260692F1A00E02F46656103205B
:1017800040EA072130461CF020F9206810F028FFBD
:10179000E06811F0DDFD0121A06811F0F3FBBDE868
:1017A000F0812DE9F04105466C6C0021A06811F034
:1017B000E9FBA06811F0E5FC296DC1F38F210E1A39
:1017C0006069B04202D26069371A00E0374666614C
:1017D000032040EA072128461CF0F7F8E06811F0E2
:1017E000B7FD2A6DC2F38F21A06811F090FC012192
:1017F000A06811F0C7FBBDE8F08170B505466C6CC0
:1018000024B9E8224E494FA014F07BF940F225514B
:10181000206811F02CF940B1012128461CF0D5F8C0
:1018200040F22551206811F0AEF940F224412068C1
:1018300011F01DF910B12846FFF78AFF40F226612A
:10184000206811F014F920B140F22661206811F0EF
:101850009AF90821206811F07BF8012802D1284666
:10186000FFF761FF70BD10B513F07EFC3948FFF73C
:10187000C4FF13F088FC10BD10B513F075FC35489B
:10188000FFF78FFF13F07FFC10BD10B513F06CFC59
:101890003148FFF7B2FF13F076FC10BD10B513F01E
:1018A00063FC2D48FFF77DFF13F06DFC10BD10B5F4
:1018B00013F05AFC2948FFF7A0FF13F064FC10BD99
:1018C00010B513F051FC2548FFF76BFF13F05BFCDC
:1018D00010BD10B5012105200AF0E9F901218803A6
:1018E0000AF0E5F9012105200AF0E1F90121480497
:1018F0000AF006FA012109200AF0D9F90121880429
:101900000AF0FEF910BD000088520608736572697E
:10191000616C20213D2052545F4E554C4C0000001C
:1019200063666720213D2052545F4E554C4C0000A9
:101930009852060880E100E0A6520608B152060857
:10194000BC5206087561727420213D2052545F4ECE
:10195000554C4C009C450020F84500205446002082
:1019600008B502208DF8020004208DF80300000263
:10197000ADF8000069464A480FF0B8FD18208DF810
:1019800003004FF40070ADF80000694644480FF0C2
:10199000ADFD04208DF803000820ADF80000694675
:1019A0003F480FF0A3FD18208DF803000420ADF888
:1019B000000069463A480FF099FD04208DF80300B5
:1019C0004002ADF80000694636480FF08FFD182040
:1019D0008DF803004FF48060ADF80000694631488F
:1019E0000FF084FD08BD38B5044620798DF800005D
:1019F00000208DF801008DF8020001208DF8030011
:101A0000684611F0D6FD38BD1CB5274903C9CDE99C
:101A10000001FFF75EFFFFF7A3FF244C4FF4E13016
:101A200000902348234988640846DDE90012C0E994
:101A300013122046FFF7D7FF234640F203321EA1C0
:101A40001C481BF09CFF1E4C4FF4E13000901848DE
:101A50001C4988640846DDE90012C0E913122046DB
:101A6000FFF7C1FF234640F2033217A115481BF0D0
:101A700086FF174C4FF4E13000900D4815498864FB
:101A80000846DDE90012C0E913122046FFF7ABFF5C
:101A9000234640F2033210A10E481BF070FF1CBD1C
:101AA00000080140000C0140C85206081400002044
:101AB000745206089C450020756172743100000064
:101AC0002C000020F845002075617274320000007F
:101AD00044000020544600207561727433000000F9
:101AE00070B52A25F748446B01E0F648446B04F0D2
:101AF00045000028F9D004F0040028B10325042093
:101B00000FF000FC284670BD04F0010028B101254B
:101B100001200FF0F7FB2846F5E740F2FF500FF0E9
:101B2000F1FB2846EFE72DE9F04106460F464FF05E
:101B30002A08E448456B01E0E248456B05F04500A2
:101B40000028F9D005F0040038B14FF00308042054
:101B50000FF0D8FB4046BDE8F08105F0010030B140
:101B60004FF0010801200FF0CDFB4046F3E70FF0E6
:101B70002AFAB04203D04FF010084046EBE740F29B
:101B8000FF500FF0BFFB00200FF021FA044604F4D1
:101B9000604018B9200C38804046DCE704F400505F
:101BA00008B11320D7E704F4804008B11020D2E731
:101BB00004F4004008B10F20CDE74046CBE738B52C
:101BC0002A24012000900FF079F910B9252420462D
:101BD00038BDBD480068042829D00020BB490860F2
:101BE00002204860C02088600020C8604FF48060F8
:101BF000086108460FF098F9FFF772FF04462A2C97
:101C000001D02046E4E700200FF0E1F9B049086078
:101C100004200FF0DCF9AE49486008200FF0D7F936
:101C2000AB4988600C200FF0D2F9A949C860A648DA
:101C3000006858B1A4480068012807D0A24800688D
:101C4000062803D0A0480068022817D100209F4929
:101C5000086003204860402088600020C8604FF47E
:101C60008060086108460FF05FF969460320FFF7BE
:101C70005AFF04462A2C01D02046A9E79248006862
:101C8000032817D1BDF80000000490490860032024
:101C90004860402088600020C8604FF48060086180
:101CA00008460FF041F9FFF71BFF04462A2C01D02C
:101CB00020468DE78448006804282FD0BDF8000036
:101CC00084490860BDF800000004804908600920CC
:101CD0004860C02088600020C8604FF480600861C0
:101CE00008460FF021F9FFF7FBFE04462A2C01D02D
:101CF00020466DE700200FF06AF97749086004205C
:101D00000FF065F97449486008200FF060F97249D6
:101D100088600C200FF05BF96F49C8602A242046C8
:101D200056E770B52A256748446B01E06548446B67
:101D300004F045000028F9D004F0040028B1032580
:101D400004200FF0DFFA284670BD40F2FF500FF07C
:101D5000D9FA2846F8E72DE9F04106462A275948DE
:101D6000456B01E05748456B05F045000028F9D068
:101D700005F0040030B1032704200FF0C3FA384601
:101D8000BDE8F08105F0010028B1012701200FF026
:101D9000B9FA3846F4E70FF016F9B04202D010272E
:101DA0003846EDE740F2FF500FF0ACFA00200FF09C
:101DB0000EF904464948204008B93846E0E704F0E7
:101DC000004008B11C20DBE704F0804008B1092086
:101DD000D6E704F0005008B10A20D1E704F08050A3
:101DE00008B10B20CCE704F0006008B10C20C7E775
:101DF00004F0806008B10D20C2E704F0807008B1E3
:101E00000E20BDE704F4000008B10F20B8E704F489
:101E1000800008B11020B3E704F4001008B11120CD
:101E2000AEE704F4801008B11220A9E704F4002002
:101E300008B11320A4E704F4802008B114209FE720
:101E400004F4003008B115209AE704F4803008B19A
:101E5000162095E704F4004008B1172090E704F439
:101E6000804008B118208BE704F4005008B1192015
:101E700086E704F0080008B11A2081E738467FE7BA
:101E800070B52A2642F210750E48446B02E06D1EB2
:101E90000C48446B04F0450008B9002DF7D115B18A
:101EA00004F0040028B1032604200FF02BFA30467A
:101EB00070BD04F0400098B12A2640200FF022FAAD
:101EC0003046F5E7008001405C000020E846002035
:101ED000C046002060000020B046002008E0FFFD62
:101EE0003046E5E770B52A2542F2107400E0641E22
:101EF00024B180200FF0B3F90028F8D014B90325DD
:101F0000284670BD40F2FF500FF0FCF92846F8E774
:101F10002DE9F0472A240026002500274FF000086D
:101F20004FF00009B220FE490875002008604860A3
:101F30008860C860086108460EF044FF03200EF078
:101F4000A8FF01200EF098FF0020F64908604860C5
:101F50008860C8604FF48060086100BF06E0F14807
:101F60000EF0E2FFFFF7BEFF04467F1C4A2FF6D3B8
:101F70002A2C02D02046BDE8F0874FF4D570E949FD
:101F8000086008204860402088600020C8604FF446
:101F90008060086108460EF0C7FFFFF771FF044636
:101FA0002A2C05D10120E04908604FF0804912E059
:101FB0000020DC490860372048604020886000200D
:101FC000C8604FF48060086108460EF0ADFF37200E
:101FD000FFF7C1FE04460020D24908603720486060
:101FE000402088600020C8604FF480600861084687
:101FF0000EF09AFF3720FFF7AEFE04462A2C4FD191
:1020000038E00020C74908603720486040208860D9
:102010000020C8604FF48060086108460EF084FF1D
:102020003720FFF798FE04462A2C01D02046A2E76D
:10203000BE4849EA0000BB490860292048604020AA
:1020400088600020C8604FF48060086108460EF088
:102050006BFFFFF766FE04462A2C01D020468AE774
:1020600000200EF0B4FF0646012080EAD67080F012
:1020700001086D1CB8F1000F03D14FF6FF708542C7
:10208000BFD34FF6FF70854202D31B24204672E770
:1020900006F08040061E35D00220A349086031E0DA
:1020A0000320A14908601FE0A1489E490860012063
:1020B0004860402088600020C8604FF4806008615C
:1020C00008460EF031FFFFF72CFE04462A2C01D003
:1020D000204650E700200EF07AFF0646012080EAF5
:1020E000D67080F001086D1CB8F1000F03D14FF6D7
:1020F000FF708542D8D34FF6FF70854202D31B2470
:10210000204638E72A2036E708B50121302009F0BB
:10211000CEFD4FF4F850ADF8000003208DF802001A
:1021200018208DF80300694682480FF0DFF904207B
:10213000ADF80000694680480FF0D8F908BD10B529
:102140002A24FFF7E1FF0121880209F085FD012122
:10215000022009F081FD0EF027FEFFF7D9FE0446AC
:102160002A2C01D0204610BDFFF729FD04462A2C59
:1021700001D02046F7E70120694908750020086072
:1021800048608860C8604FF48040086108460EF0DF
:1021900019FE2046E7E710B52A2400200EF079FE4C
:1021A000204610BD30B501462A2000225E4B1B7828
:1021B00081F84E30614B1B88A1F84C30604B1B6896
:1021C0001A0E93090B70C2F383034B7002F00303E2
:1021D0008B705B4B1B68C3F30742CA70584B1B885C
:1021E000C3F307220A71564B1A784A715B681A0EBC
:1021F0001301CB80524B5B68C3F30742CB8843EAA1
:102200001213CB8002F00F030B724D4B9B88C3F36C
:102210000722D3094B72C2F380138B72C2F34013AF
:10222000CB72C2F300130B7300234B733E4B1B683E
:102230001BB13D4B1B68012B3CD193071B0D0B6160
:102240003F4B1A790B6943EA82030B613C4B9B6855
:102250001A0E0B6943EA92130B61C2F3C2030B75AA
:1022600002F007034B75364B9B68C3F307425309D3
:102270008B75C2F38203CB7593075B0F0B76304BE4
:102280001B89C3F307220B7E43EAD2130B760B693B
:102290005B1C4B640C7E4B6CA41C0125A5406B435E
:1022A0004B640C7A0123A3408B64D1E9113463435E
:1022B0004B6421E01C4B1B68022B1DD1204B1A796B
:1022C00093069B0A0B611E4B9B681A0E0B6943EA2F
:1022D00002230B611A4B9B68C3F307420B6913433C
:1022E0000B61174B1B89C3F307220B695B1CDB04D3
:1022F0004B644FF400738B64C2F3801301F8193FF1
:1023000093065B0E4B700E4B1A7A4B7843EAD2134E
:102310004B7002F07F038B70094BDB681A0E11E0E3
:10232000D0460020E84600205C000020000010801D
:102330000080FF8000100140001401406000002078
:10234000B0460020D309CB70C2F341130B71C2F326
:1023500082034B7193071B0F8B71F54BDB68C3F343
:1023600007428B7943EA92138B71C2F34013CB710E
:1023700000230B7202F001034B72ED4B9B89C3F3F8
:102380000722D3098B72C2F38013CB72C2F34013BE
:102390000B73C2F300134B73C2F381038B7302F010
:1023A0000303CB73E24B1A7B53080B7401234B746A
:1023B000E04B1B681A0ECA741939DE4B1B68C3F355
:1023C00007421402CC85DB4B1B88C3F30722CB8D5D
:1023D0001343CB85D74B1A7814060C635B681A0E2F
:1023E0000B6B43EA02440C63D24B5B68C3F30742B6
:1023F0000B6B43EA02240C63CE4B9B88C3F307228A
:102400000B6B13430B63CB4B1A7934235A54C94BD0
:102410009B681A0E35235A54C64B9B68C3F3074278
:1024200014068C63C34B1B89C3F307228B6B43EAEF
:1024300002448C63BF4B1A7A8B6B43EA02248C6391
:10244000BC4BDB681A0E8B6B13438B63B94BDB6899
:10245000C3F307423C235B5C43EA12143C235C5405
:1024600013071C0DCC87B34B9B89C3F30722CB8F7B
:102470001343CB87AF4B1A7B540840235C54012491
:1024800041235C5430BDFEB507460D4600262A2484
:102490000020019002900820A749086010204860A1
:1024A000402088600020C8604FF4806008610846C2
:1024B0000EF03AFD1020FFF74EFC04462A2C01D006
:1024C0002046FEBD9D48008800049B4908603720D7
:1024D0004860402088600020C8604FF48060086138
:1024E00008460EF021FD3720FFF735FC04462A2C64
:1024F00001D02046E5E74FF0FF3091490860082001
:102500004860302088600220C860002008610120F7
:10251000486108460EF073FD0020009002E000982C
:10252000401C009000981428F9D3002082490860CC
:1025300033204860402088600020C8604FF48060ED
:10254000086108460EF0F0FC3320FFF704FC044657
:102550002A2C01D02046B4E70AE04FF400100EF018
:102560007EFE28B10EF0CCFD01A941F82600761CB4
:102570007448406B40F22A6108400028EDD00820E2
:102580000EF06DFE28B108200EF0BCFE042420469B
:1025900097E702200EF063FE28B102200EF0B2FE93
:1025A000022420468DE720200EF059FE28B120207D
:1025B0000EF0A8FE0624204683E74FF400700EF0CC
:1025C0004EFE30B14FF400700EF09CFE0724204602
:1025D00077E740F2FF500EF095FE01980006019952
:1025E00001F47F4140EA0120019901F47F0140EAB2
:1025F0001120019940EA1160686002980006029972
:1026000001F47F4140EA0120029901F47F0140EA90
:102610001120029940EA11602860204651E77CB5FC
:1026200005462A240020009001900EF0D0FC00F016
:10263000007010B10E2420467CBD4049098888B244
:102640006946FFF720FF04462A2C01D02046F3E715
:10265000012D38D1019800F48020002830D037486F
:1026600000880004344908603720486040208860B2
:102670000020C860A802086108460EF055FC37200B
:10268000FFF769FB04462A2C01D02046D4E702203C
:102690002949086006204860402088600020C86002
:1026A0004FF48060086108460EF03EFC0620FFF7FC
:1026B00052FB04462A2C01D02046BDE72046BBE74A
:1026C00025242046B8E7019800F4803078B31B48F1
:1026D000008800041849086037204860402088605E
:1026E0000020C8604FF48060086108460EF01CFCB2
:1026F0003720FFF730FB04462A2C01D020469BE709
:1027000000200D49086006204860402088600020B5
:10271000C8604FF48060086108460EF005FC062092
:10272000FFF719FB04462A2C0ED0204684E70DE063
:10273000B0460020C0460020E8460020600000208F
:10274000FC46002000800140204675E725242046F5
:1027500072E770B504462A25FA480068032802D1BA
:102760002725284670BDF748006838B1F54800684D
:10277000012803D0F3480068022830D1B4F5805F07
:1027800002D127252846EDE7B4F5006F15D10120C9
:10279000FFF745FF05462A2D21D10120EA4908759A
:1027A00000200860486088604FF40060C860002026
:1027B000086108460EF006FB11E00020FFF72FFF2E
:1027C00005462A2D0BD10120DF490875002008603D
:1027D00048608860C860086108460EF0F3FA284631
:1027E000C0E701462A2019B1012901D0022902D1EE
:1027F000D64A116000E02620704770B504462A25AD
:10280000D34804600720D2494860402088600020F7
:10281000C8604FF48060086108460EF085FB072011
:10282000FFF799FA0546284670BD30B58BB00546CE
:102830000C46C84810F08CFD0021C74810F0A2FBE0
:10284000C6480090019500200290A0080390002047
:102850000490802005908000069080000790002062
:1028600008904FF40050099000200A906946BA4839
:1028700010F0B9FA0121B84810F084FB0BB030BD5C
:102880000146002002E04910421CD0B20129FAD1D1
:1028900070472DE9F05F81460D4614462A274FF018
:1028A00000082E464FF0000A1DB926273846BDE81D
:1028B000F09F2A20AA4908700020AA490860AA4966
:1028C0000860401EA9490860002048608860C86010
:1028D0000861486108460EF092FB00200EF016FBDE
:1028E00000200EF074FB00F0007010B10E27384687
:1028F000DDE794480068022800D10402002C20DDA6
:10290000B4F5006F1DDC601E2040D0B92046FFF7F3
:10291000B7FF82468E48046010208D4948604020F1
:1029200088600020C8604FF48060086108460EF09F
:10293000FBFA1020FFF70FFA07462A2F04D038467B
:10294000B5E726273846B2E74FF0FF3087490860E1
:10295000084644604FEA0A1088600220C8600020E0
:1029600008610120486108460EF049FB7E4804607A
:1029700000207F4908607F4805607548C0F80090D6
:10298000112073494860402088600020C8604FF4DF
:102990008060086108460EF0C7FA1120FFF7DBF9E6
:1029A00007462A2F01D0384681E768480068022888
:1029B00054D111E04FF400400EF051FC60B14FF0E3
:1029C000000805E00EF09CFB46F8280008F101081D
:1029D000B8F1080FF6D3203660488038406B40F2DB
:1029E0002A6108400028E5D008200EF038FC28B104
:1029F00008200EF087FC0427384658E702200EF026
:102A00002EFC28B102200EF07DFC022738464EE74E
:102A100020200EF024FC28B120200EF073FC0627A5
:102A2000384644E74FF400700EF019FC30B14FF413
:102A300000700EF067FC0727384638E703E00EF019
:102A40005FFB3060361D4FF400100EF008FC0028CC
:102A5000F5D140F2FF500EF055FC3DE03B480068D8
:102A6000012813D1012148F22A300EF02CFA00BFC0
:102A70003C48006818B93A4800782A28F8D0384805
:102A800000782A2828D03648007810E72F480068B8
:102A900010BB012140F22A300EF015FA01200EF091
:102AA00035FA10F070FE834621462846FFF7BDFE3A
:102AB0000BE02B4800782A2805D110F064FEA0EB2B
:102AC0000B000A2801D9292704E02B4810F093FBBA
:102AD0000028EED000BF00BF3846E8E62DE9F84FE9
:102AE00082460E4614461D464FF02A084FF0000954
:102AF00037460020009026B94FF026084046BDE832
:102B0000F88F2A20164908700020164908601649D7
:102B10000860401E15490860002048608860C86051
:102B20000861486108460EF06AFA00200EF0EEF9DE
:102B300000200EF04CFA00F00070F8B14FF00E08D3
:102B40004046DCE75C000020D04600206400002006
:102B5000E846002000F0001044040240808001405C
:102B6000780000207C00002068000020FC46002047
:102B70006C0000207400002000200010F84800685D
:102B8000022800D10402002C21DDB4F5006F1EDC08
:102B9000601E2040D8B92046FFF772FE0090F14831
:102BA00004601020EF494860402088600020C86021
:102BB0004FF48060086108460EF0B6F91020FFF768
:102BC000CAF88046B8F12A0F05D0404697E74FF083
:102BD0002608404693E7012D71D905FB04F0B0F1BA
:102BE000007F03D34FF02608404688E705FB04F03A
:102BF000DD4908600120DD490860DD4806604FF0CE
:102C0000FF30DC49086005FB04F0486000980001D3
:102C100088600220C86000200861012048610846E1
:102C20000EF0EDF9CF48C0F800A01220CD49486061
:102C3000402088600020C8604FF48060086108462A
:102C40000EF072F91220FFF786F88046B8F12A0FCD
:102C500001D0404653E7C848006802287BD111E004
:102C60004FF400400EF0FBFA60B14FF0000905E0B0
:102C70000EF046FA47F8290009F10109B9F1080FE9
:102C8000F6D32037BD48406B40F22A310840002877
:102C9000E6D008200EF0E3FA30B108200EF032FB47
:102CA0004FF0040840462AE702200EF0D8FA38B167
:102CB00002200EF027FB4FF0020840461FE79EE07F
:102CC00020200EF0CCFA30B120200EF01BFB4FF08C
:102CD0000608404613E74FF400700EF0C0FA38B112
:102CE0004FF400700EF00EFB4FF00708404606E769
:102CF00003E00EF005FA38603F1D4FF400100EF0AF
:102D0000AEFA0028F5D14FF480700EF0A8FA18B38F
:102D10009348006838B192480068022803D0904870
:102D20000068012818D100208E4908600C204860F6
:102D3000402088600020C8604FF480600861084629
:102D40000EF0F2F80C20FFF706F88046B8F12A0FD3
:102D500002D04046D3E604E040F2FF500EF0D2FA33
:102D60004FE085480068012813D1012148F22A303C
:102D70000EF0A9F800BF8248006818B981480078B1
:102D80002A28F8D07F4800782A283AD07D48007851
:102D9000B5E67948006890BB012140F22A300EF078
:102DA00092F801200EF0B2F810F0EDFC834605FB1E
:102DB00004F13046FFF739FD0DE0724800782A280B
:102DC00005D110F0E0FCA0EB0B000A2803D94FF06E
:102DD0002908404693E66C4810F00DFA0028ECD024
:102DE00000BF6748006818B9664800782A28F8D0FC
:102DF000644800782A2803D0624800787FE600E023
:102E000000BF40467BE67CB504462A2500200190A1
:102E100000905E4800880004524908600D20486018
:102E2000402088600020C8604FF480600861084638
:102E30000EF07AF85148406B009002E04F48406B2A
:102E40000090009800F045000028F7D0009800F0AE
:102E5000040028B1032504200EF054FA28467CBD56
:102E6000009800F0010028B1012501200EF04AFA77
:102E70002846F4E70EF0A7F8009000980D2802D03D
:102E800010252846EBE740F2FF500EF03BFA0020F9
:102E90000EF09DF801900198C0F3432020703C494A
:102EA0000198084008B92846D9E7019800F0004089
:102EB00008B11C20D3E7019800F0804008B1092038
:102EC000CDE7019800F0005008B10A20C7E701984B
:102ED00000F0805008B10B20C1E7019800F00060BD
:102EE00008B10C20BBE7019800F0806008B10D200C
:102EF000B5E7019800F0807008B10E20AFE70198A7
:102F000000F4000008B10F20A9E7019800F4800048
:102F100008B11020A3E7019800F4001008B11120B7
:102F20009DE7019800F4801008B1122097E70198FE
:102F300000F4002008B1132091E7019800F48020EC
:102F400008B114208BE7019800F4003008B1152077
:102F500085E7019800F48030E0B116207FE700009B
:102F60005C000020E8460020680000206C00002083
:102F700074000020FC460020640000200080014016
:102F80007C0000207800002000200010600000205D
:102F900008E0FFFD019800F4004008B117205EE74B
:102FA000019800F4804008B1182058E7019800F417
:102FB000005008B1192052E7019800F0080008B14C
:102FC0001A204CE728464AE730B58BB005460C4638
:102FD000FE4810F0BDF90021FD480FF0D3FFFD4879
:102FE0000090019510200290A0080390002004900A
:102FF00080200590800006908000079000200890B7
:103000004FF40050099000200A906946F0480FF0F4
:10301000EAFE0121EE480FF0B5FF0BB030BD2DE9FF
:10302000FF5F83460F4614462A2500200390029036
:1030300082460026019080460090B94627B9262591
:10304000284604B0BDE8F09F2A20E349087000201C
:10305000E2490860E2490860401EE2490860002039
:1030600048608860C8600861486108460DF0C7FF85
:1030700000200DF04BFF00200DF0A9FF00F00070C4
:1030800010B10E252846DCE7D7480068022800D199
:103090000402002C20DDB4F5006F1DDC601E204012
:1030A000D0B92046FFF7ECFB0390D0480460102015
:1030B000CE494860402088600020C8604FF480609E
:1030C000086108460DF030FF1020FEF744FE05466B
:1030D0002A2D04D02846B4E726252846B1E7C4485F
:1030E00000880004C14908600D20486040208860C5
:1030F0000020C8604FF48060086108460DF014FF9E
:103100000D20FEF728FE05462A2D01D0284698E717
:1031100000200DF05CFF01904FF0FF3A1EE0AAF195
:10312000010AB34800880004B04908600D204860D7
:10313000402088600020C8604FF480600861084625
:103140000DF0F2FE0D20FEF706FE05462A2D01D0F9
:10315000284676E700200DF03AFF0190019800F430
:10316000807010B9BAF1000FD9D1BAF1000F01D1B6
:10317000292066E79D48C0F800B018209B494860A8
:10318000402088600020C8604FF4806008610846D5
:103190000DF0CAFE1820FEF7DEFD05462A2D01D0EF
:1031A00028464EE78E480460002092490860924805
:1031B00007604FF0FF308B49086008464460039871
:1031C000000188600020C86008610120486108464D
:1031D0000DF015FF8948006802286CD139E04FF4E2
:1031E00080400EF03CF8A0B37D480068801B20288A
:1031F00020D27B480078801B00F0030020B978487B
:103200000068801B800804E075480068801B800807
:10321000401C00904FF0000808E0D9F800000DF0C5
:1032200073FF08F1010809F10409361D0098804573
:103230000FD2F2E74FF0000805E059F828000DF032
:1032400063FF08F10108B8F1080FF6D309F120096E
:10325000203660488038406B40F21A6108400028F0
:10326000BDD008200DF0FBFF28B108200EF04AF871
:1032700004252846E5E602200DF0F1FF28B10220E2
:103280000EF040F802252846DBE610200DF0E7FF9F
:1032900028B110200EF036F805252846D1E64FF467
:1032A00000700DF0DCFFE8B34FF400700EF02AF868
:1032B00007252846C5E651480068012813D1012199
:1032C00044F21A300DF0FFFD00BF4448006818B901
:1032D000414800782A28F8D03F4800782A2828D08A
:1032E0003D480078ADE645480068D8B9012140F274
:1032F0001A300DF0E8FD21463846FFF765FE012043
:103300000DF004FE00BF3E480FF075FF0028FAD014
:1033100000BF3248006818B92F4800782A28F8D032
:103320002D4800E005E000782A2802D02A480078DD
:1033300087E640F2FF500DF0E5FF02A8FFF763FDBE
:10334000054603E002A8FFF75EFD05462A2D07D1DA
:103350009DF808000728F5D09DF808000628F1D050
:1033600028466EE62DE9FE4F8346884614461E46E3
:103370002A25002002900190002781460090C24635
:10338000B8F1000F03D126252846BDE8FE8F2A207C
:103390001149087000201149086011490860401E59
:1033A00010490860002048608860C8600861486172
:1033B00008460DF024FE00200DF0A8FD00200DF0C1
:1033C00006FE00F00070F8B10E251BE000F00010C2
:1033D0004404024080800140780000207C000020EE
:1033E00068000020FC4600205C000020E846002029
:1033F000600000206C0000207000002064000020AD
:10340000002000102846C0E7F8480068022800D1D4
:103410000402002C20DDB4F5006F1DDC601E20408E
:10342000D0B92046FFF72CFA0290F1480460102032
:10343000EF494860402088600020C8604FF48060F9
:10344000086108460DF070FD1020FEF784FC05466B
:103450002A2D04D0284698E72625284695E7E548F2
:1034600000880004E24908600D2048604020886020
:103470000020C8604FF48060086108460DF054FDDC
:103480000D20FEF768FC05462A2D01D028467CE772
:10349000012E7BD906FB04F0B0F1007F02D3262574
:1034A000284672E7D148006838B1D0480068012842
:1034B00003D0CE48006802282FD1CE4800880004EF
:1034C000CB49086037204860402088600020C860F1
:1034D0004FF48060086108460DF026FD3720FEF7A6
:1034E0003AFC05462A2D01D028464EE7C048066022
:1034F0001720BF494860402088600020C8604FF412
:103500008060086108460DF00FFD1720FEF723FCD0
:1035100005462A2D01D0284637E7B548C0F800B047
:103520001920B3494860402088600020C8604FF4EB
:103530008060086108460DF0F7FC1920FEF70BFCCF
:1035400005462A2D01D028461FE706FB04F0AA49AC
:1035500008600120A9490860A948C0F800804FF020
:10356000FF30A849086006FB04F04860029800019B
:1035700088600020C86008610120486108460DF09D
:103580003EFDA148006802287ED13AE0D1E04FF428
:1035900080400DF064FEA0B397480068C01B20284F
:1035A0000FD34FF0000905E05AF829000DF0ACFDEB
:1035B00009F10109B9F1080FF6D30AF1200A203701
:1035C0001FE08D480078C01B00F0030020B98A4836
:1035D0000068C01B800804E087480068C01B8008A2
:1035E000401C00904FF0000908E0DAF800000DF0F0
:1035F0008BFD09F101090AF1040A3F1D009881457C
:10360000F3D38248406B40F21A3108400028BED004
:1036100008200DF024FE28B108200DF073FE0425CB
:103620002846B2E602200DF01AFE28B102200DF065
:1036300069FE02252846A8E610200DF010FE28B1EC
:1036400010200DF05FFE052528469EE64FF4007021
:103650000DF005FE30B14FF400700DF053FE07255C
:10366000284692E64FF480700DF0F9FD002860D0F6
:103670005E48006838B15D480068012803D05B48A7
:103680000068022855D100E016E000205849086083
:103690000C204860402088600020C8604FF48060A3
:1036A000086108460DF040FC0C20FEF754FB05466F
:1036B0002A2D3ED0284668E653480068012813D1D9
:1036C000012144F21A300DF0FEFB00BF50480068A3
:1036D00018B9504800782A28F8D04E4800782A288F
:1036E00027D04C48007850E64748006808BB0121C5
:1036F00040F21A300DF0E7FB01200DF007FC06FB4D
:1037000004F14046FFF760FC00BF43480FF073FD33
:103710000028FAD000BF3E48006818B93D4800783C
:103720002A28F8D03B4800782A2802D03948007867
:103730002BE640F2FF500DF0E5FD01A8FFF763FB1B
:10374000054603E001A8FFF75EFB05462A2D07D1D9
:103750009DF804000728F5D09DF804000628F1D054
:10376000284612E62948406B00F4405008B1012079
:1037700070470020FCE710B52A2400201C4908608F
:103780000C204860402088600020C8604FF48060B2
:10379000086108460DF0C8FB0C20FEF7DCFA044671
:1037A000204610BD2DE9FC4105460E462A2400277F
:1037B00000200190009019484068202101EA105033
:1037C00018B925242046BDE8FC8110484068C0B2E5
:1037D000801C1349B1FBF0F0019000200DF0F7FBC5
:1037E00000F00070F0B10E242046ECE75C000020F1
:1037F000E846002060000020680000206C000020E7
:1038000070000020FC460020640000200080014081
:103810007C0000207800002000200010B04600202E
:1038200040190100FE480068022801D16D0A760A9D
:10383000FB48006838B1FA480068012803D0F8480E
:10384000006802282DD1F74805602020F54948601E
:10385000402088600020C8604FF4806008610846FE
:103860000DF062FB2020FEF776FA04462A2C01D0E8
:103870002046A8E7EB4806602120EA49486040203E
:1038800088600020C8604FF48060086108460DF031
:103890004BFB2120FEF75FFA04462A2C01D020467C
:1038A00091E70020DF4908602620486040208860BA
:1038B0000020C8604FF48060086108460DF034FBBA
:1038C0002620FEF748FA04462A2C01D020467AE743
:1038D000002700E07F1C01988742FBD36846FFF772
:1038E00092FA044603E06846FFF78DFA04462A2C54
:1038F00007D19DF800000728F5D09DF800000628A4
:10390000F1D020465FE770B504462A2514B9262574
:10391000284670BDC44800880004C24908600D20D4
:103920004860402088600020C8604FF480600861D3
:1039300008460DF0F9FA0D20FEF70DFA05462A2D7E
:1039400001D02846E5E700200DF041FB2060284625
:10395000DFE770B504462A26002500200DF037FB6E
:1039600000F0007010B10E26304670BD4020AD4909
:10397000086010204860402088600020C8604FF434
:103980008060086108460DF0CFFA1020FEF7E3F9D9
:1039900006462A2E01D03046E7E7A34800880004F7
:1039A000A049086037204860402088600020C86037
:1039B0004FF48060086108460DF0B6FA3720FEF734
:1039C000CAF906462A2E01D03046CEE74FF0FF3026
:1039D0009649086040204860602088600220C860E6
:1039E000002008610120486108460DF008FB002016
:1039F0008C4908600D204860402088600020C86025
:103A00004FF48060086108460DF08EFA0D20FEF735
:103A1000A2F906462A2E01D03046A6E70EE04FF462
:103A200000400DF01CFC48B1002504E00DF068FBDF
:103A300044F825006D1C082DF8D320347C48406BD9
:103A400040F22A6108400028E9D008200DF007FC68
:103A500028B108200DF056FC0426304685E70220E8
:103A60000DF0FDFB28B102200DF04CFC0226304683
:103A70007BE720200DF0F3FB28B120200DF042FC65
:103A80000626304671E74FF400700DF0E8FB30B1C8
:103A90004FF400700DF036FC0726304665E703E072
:103AA0000DF02EFB2060241D4FF400100DF0D7FB0D
:103AB0000028F5D140F2FF500DF024FC403C0025D9
:103AC00015E014F82500000634F8251001F47F41B4
:103AD00040EA012054F8251001F47F0140EA11204A
:103AE00054F8251040EA116044F825006D1C102D93
:103AF000E7D3304639E770B5002400254D4800680B
:103B0000012867D1C0030DF00DFCA8B100BF06E08D
:103B10000DF0F6FA4849096841F82400641C082CA5
:103B2000F6D34548006820304349086043480068A0
:103B30002030424908604DE04FF480400DF0F2FB28
:103B4000002847D03E4800683C490968401A2028B0
:103B50002BD23B48007839490968401A00F003002D
:103B600030B93748006835490968401A800806E0CE
:103B70003348006831490968401A8008401C0546EE
:103B800000240FE02F49096808680DF0BDFA641C95
:103B90002C480068001D2B49086028480068001D5B
:103BA00026490860AC42EDD314E0002406E0254924
:103BB000096851F824000DF0A7FA641C082CF6D30C
:103BC0002048006820301F4908601C4800682030E9
:103BD0001A4908604FF480700DF0A4FBB0B315488B
:103BE0000068D0B10EE00DF08BFA13490968086047
:103BF00011480068001D1049086010480068001D49
:103C00000E4908604FF400100DF029FB28B10B4855
:103C100000680B4909688842E5D30B48006816E044
:103C20005C000020E846002060000020FC460020E8
:103C3000008001406400002074000020800000200B
:103C400068000020700000206C0000201BE00128AC
:103C500004D1FFF790FDFE49087002E02A20FC49DC
:103C600008704FF480700DF0B0FB00214CF23A3038
:103C70000DF029F90120F74908600020F649086095
:103C8000F348007870BD02200DF04CFB70B10220AB
:103C90000DF09BFB00214CF23A300DF014F900209E
:103CA000ED4908600220EA490870EBE708200DF0B2
:103CB00039FB70B108200DF088FB00214CF23A303E
:103CC0000DF001F90020E44908600420E049087083
:103CD000D8E720200DF026FB70B120200DF075FBF9
:103CE00000214CF23A300DF0EEF80020DA4908607D
:103CF0000620D7490870C5E710200DF013FB70B1FE
:103D000010200DF062FB00214CF23A300DF0DBF890
:103D10000020D14908600520CD490870B2E74FF472
:103D200000700DF0FFFA78B14FF400700DF04DFB0C
:103D300000214CF23A300DF0C6F80020C649086068
:103D40000720C34908709DE72A209BE738B5044641
:103D500031208DF8000000208DF801008DF8020060
:103D600001208DF8030068460FF023FC0023012298
:103D7000BAA1BC480FF0DCFF10B1BBA011F0E5FD0B
:103D8000002038BD024600207047014600207047E1
:103D90002DE9F05F83460F4614469846BA480068FE
:103DA000022801D1012501E04FF400754FF0FF31E9
:103DB000AC4810F038F84FF0030A44E004F0030078
:103DC00010B9B24884421DD9002617E0B0494968AD
:103DD0003144394401FB05F04FF40072AD49FEF760
:103DE00058FD8146B9F12A0F00D009E004EB4620C6
:103DF0004FF40072A74911F030FA761C4645E5D31E
:103E000000BF1AE0B8F1010F0BD1A149496839444C
:103E100001FB05F04FF400722146FEF73AFD8146A2
:103E20000BE09B494968394401FB05F043464FF4D8
:103E300000722146FEF752FE8146B9F12A0F00D1E9
:103E400004E0AAF1010ABAF1000FB7D100BF85481A
:103E500010F063F8B9F12A0F02D14046BDE8F09F97
:103E6000224649468CA011F070FD0020F6E72DE9AE
:103E7000F0478246884615469946834800680228DE
:103E800001D1012601E04FF400764FF0FF31754873
:103E90000FF0C9FF05F0030010B97C4885421CD91A
:103EA000002716E005EB47214FF40072794811F026
:103EB000D4F9774949683944414401FB06F04FF48D
:103EC00000727449FFF7ABF804462A2C00D002E0D8
:103ED0007F1C4F45E6D300BF1AE0B9F1010F0BD1AB
:103EE0006B494968414401FB06F04FF400722946D2
:103EF000FFF795F804460BE065494968414401FB2A
:103F000006F04B464FF400722946FFF72BFA0446A1
:103F1000544810F002F82A2C02D14846BDE8F08738
:103F20002A46214664A011F010FD0020F6E770B586
:103F300005460E4614462DB940F64642674968A02C
:103F400011F0DFFD102E1CD1214611B94FF0FF30CA
:103F500070BD4FF4007048606548806C88604A48C6
:103F60000068022805D162480069401C8002086090
:103F700006E05F48406C5E4A926CB0FBF2F008606D
:103F800000BF0020E4E738B50121102007F08FFEC4
:103F90004020ADF8000010208DF8030002208DF8BD
:103FA0000200694653480DF0A1FA402151480DF036
:103FB000A5FCFEF7C4F82A2848D14D48FEF7F2F8D0
:103FC00005462A2D00D0C6E04949B1F84C10080436
:103FD000FEF713FC05462A2D00D0BCE04FF400602C
:103FE000FEF7B7FB0020FEF7FCFB4FF4007011F06A
:103FF000C7FE044624B940A011F0A7FC002038BD3C
:104000004FF4007221460020FEF743FC05462A2D9E
:104010000AD1002221461E4814F00BFC40B10020BA
:104020001B494860886003E00020194948608860A7
:10403000204611F09EFF01203A4908773A48C862AD
:104040003A4808633A4848633A4875E082E000001D
:10405000780000207C0000208000002073646C6FDA
:10406000636B0000BC470020696E69742073642094
:104070006C6F636B2073656D6170686F726520662D
:1040800061696C65640A00005C0000200000082083
:10409000AC470020E44700207265616420666169D6
:1040A0006C65643A2025642C206275666665722012
:1040B0003078253038780A00777269746520666137
:1040C000696C65643A2025642C20627566666572A9
:1040D000203078253038780A00000000D0520608D9
:1040E00064657620213D2052545F4E554C4C0000B3
:1040F0005C47002000100140616C6C6F6361746567
:1041000020706172746974696F6E20736563746F77
:104110007220627566666572206661696C65640A04
:1041200000000000144700204D3D0008853D0008B8
:104130008B3D0008913D000888630F48C8630F4815
:1041400008640F4848640F220EA10F480FF092FB3D
:10415000002054E700BF0DA011F0F7FB40211048EC
:104160000DF0A1FB00204AE710B510F0FDFFFFF7AE
:10417000C2FC11F008F810BD6F3E00082F3F000888
:104180005C4700207364300014470020736463614F
:10419000726420696E6974206661696C65640A00E6
:1041A0000010014008B50121402007F080FD0020EB
:1041B0000D49086001200D49C1F890013020ADF88B
:1041C000000010208DF8030003208DF802006946DE
:1041D00007480DF08BF900200349086001200349CE
:1041E000C1F8900108BD70479401234200002342AA
:1041F0000018014070B505460C4601F06CF8D0205F
:1042000001F0D0F828B9284601F0CCF8204601F09A
:10421000C9F801F082F870BD70B5044601F05BF892
:10422000D02001F0BFF868B9204601F0BBF801F0DA
:1042300052F8D12001F0B6F801F005F90546012049
:1042400001F08AF801F069F8284670BD2DE9F041C7
:1042500080460D4616461F4627B301F03CF8D02095
:1042600001F0A0F8D8B9404601F09CF801F033F80D
:10427000D12001F097F800240FE001F0E4F8287055
:10428000701EA04203D1012001F066F802E0002078
:1042900001F062F86D1C601CC4B2B442EDDB01F0A9
:1042A0003CF814E001F017F8D02001F07BF860B979
:1042B000404601F077F8002405E0287801F072F814
:1042C0006D1C601CC4B2B442F7DB01F026F8BDE8F7
:1042D000F0811CB5044644B301230722694600203F
:1042E000FFF7B4FF9DF8000000F07F0064490870FC
:1042F0009DF8010000F07F0048709DF8020000F07A
:104300003F0088709DF8030000F00700C8709DF81A
:10431000040000F03F0008719DF8050000F01F0048
:1043200048719DF80600887121E0554800788DF8A5
:104330000000534840788DF80100514880788DF88E
:1043400002004F48C0788DF803004D4800798DF881
:1043500004004B4840798DF80500494880798DF874
:1043600006000023072269461846FFF76FFF1CBDB1
:1043700010B53F20FFF750FF552801D1002010BD98
:104380000120FCE72DE9F04180460C4616463F2C03
:1043900001DBBDE8F081A0193E2803DBC4F13E003B
:1043A000C7B200E0374600F096FFD02000F0FAFFD9
:1043B00060B9204600F0F6FF002505E018F805007A
:1043C00000F0F0FF681CC5B2BD42F7DB00F0A5FFAE
:1043D00000BFDEE72DE9F04180460C4617463F2C32
:1043E00001DBBDE8F081E0193F2803DBC4F13E00AA
:1043F000C6B200E03E4600F06EFFD02000F0D2FFD3
:10440000E0B9204600F0CEFF00F065FFD12000F0BB
:10441000C9FF98B900250FE001F015F808F805006C
:10442000701EA84203D1012000F096FF02E0002098
:1044300000F092FF681CC5B2B542EDDB00F06DFFE5
:1044400000BFCEE710B5044620780E4908706078AA
:104450004870A0788870E078C87020790871607919
:104460004871A0798871E079C87100230822184644
:10447000FFF7ECFE55213F20FFF7BCFE10BD00000A
:10448000840000208C00002010B5022066490870CE
:1044900000204870654801780068401C634A10603D
:1044A000C8B261498870002404E002215E4AE01C21
:1044B0001154641C1E2CF8DB5B4880785A4981F843
:1044C0002100402200215A4810F0A3FE56485949C5
:1044D000086057484860222088600846006920F03C
:1044E0000100401C08610846006920F00200801CA1
:1044F00008610020C8605048006819F028FE4FA0ED
:1045000011F023FA002405E04748015D52A011F0A4
:104510001CFA641C222CF7DB10BD10B503204249A5
:10452000087000204870202200213F48801C10F0B5
:1045300070FE402200213E4810F06BFE3A483D4993
:1045400008603B484860222088600846006920F0E7
:104550000100401C08610846006920F00200801C30
:1045600008610020C8603448006819F0F0FD3CA0E4
:1045700011F0EBF9002405E02D48015D36A011F0A3
:10458000E4F9641C222CF7DB10BD08B501210C20D6
:1045900007F08DFB0120ADF8000048208DF80300E6
:1045A00003208DF80200694634480CF09FFF344820
:1045B000344908601020888008468088ADF80000E3
:1045C00010208DF8030003208DF80200086869466A
:1045D0000CF08CFF2B4A918810680DF064F9294B80
:1045E00029A22BA12C4819F00AFC08BD1CB5FFF725
:1045F000CCFF27A00FF018F90F49086008460068A3
:1046000010B94FF0FF301CBD08208DF801000420C8
:104610008DF800002148019069460748006819F0AC
:1046200013FC0020EFE70000384A0020980000202B
:10463000F8490020E4490020940000200D0A657329
:10464000703832363620777269746520427566207C
:104650006973200D0A000000253032582000000048
:104660000D0A6573703832363620726561642042F7
:104670007566206973200D0A00000000000C0140DF
:10468000000801409C000020535049310000000008
:104690004553503832363600784A0020A086010053
:1046A00070B504460D4614B1012C1AD10CE04FF43C
:1046B000615068434FF47A7190FBF1F086B2314655
:1046C00034480BF04CFB11E04FF4615068434FF459
:1046D0007A7190FBF1F086B231462E480BF007FB61
:1046E00004E021462CA011F030F900BF00BF70BDDE
:1046F00030B589B005460C460121022007F000FBC9
:104700000121112007F0D3FA01212E480DF026FADD
:10471000C020ADF8200018208DF8230003208DF86C
:10472000220008A928480CF0E1FEADF81850ADF8B9
:1047300014400020ADF81A00ADF8160005A9154880
:1047400008F0BAFB00210846FFF7AAFF002101206C
:10475000FFF7A6FF08210F480AF00CFB08210D48BF
:104760000AF04FFB7020ADF804000120ADF8060000
:104770000220ADF80C0001A9064808F037FC01A999
:10478000044808F053FD0121024809F0F1FB09B08B
:1047900030BD000000040040C9E8B1B8D1A1D4F197
:1047A000B4EDCEF3206465766963652069732025D6
:1047B00064202C20303A20C3C5CDE220313A20C3FA
:1047C000C5C4DA00000C1A000010014008B5012130
:1047D0004FF4867007F06BFA4FF48070ADF800006C
:1047E00010208DF8030003208DF802006946FE4872
:1047F0000CF07CFE4020ADF8000010208DF8030086
:1048000003208DF802006946F7480CF06FFEF74868
:10481000F74908608014888008468088ADF8000059
:1048200010208DF8030003208DF802000868694607
:104830000CF05CFEEE4A918810680DF034F8EC4BF9
:10484000ECA2EEA1EF4819F0DAFAEF48EF49086060
:104850004FF40040888008468088ADF800001020A2
:104860008DF8030003208DF80200086869460CF0FB
:104870003DFEE64A918810680DF015F8E34BDDA285
:10488000E3A1E64819F0BBFA08BD70B504460D4631
:104890007E2000EA4400E249087008464570E1497C
:1048A0000860E1484860022088600846006920F0FE
:1048B0000100401C08610846006920F00200801CCD
:1048C00008610020C860D948006819F040FC70BD3C
:1048D00010B504467E2000EA440040F08000D04934
:1048E00008700846CF490860CF48486001208860BA
:1048F0000846006920F00100401C08610846006974
:1049000020F0020008610020C860C848006819F063
:104910001EFC0020C2490870C248006920F0020055
:10492000801CC0490861C148006819F010FCBE48ED
:10493000007810BD70B505460C4600262846FFF7E6
:10494000C7FF064646EA04012846FFF79EFF70BDF2
:1049500010B51420FFF7BCFF044604F0030018B99B
:1049600003211420FFF7E6FF10BD70B505460C4685
:1049700000262846FFF7ACFF064626EA0401284633
:10498000FFF783FF70BD70B50446412C28D1082184
:104990000846FFF7EAFF3D211120FFF776FF862149
:1049A0001720FFF772FF7F212620FFF76EFF1E21E1
:1049B0002D20FFF76AFF00212C20FFF766FF8D21D5
:1049C0002A20FFF762FF3E212B20FFF75EFF012028
:1049D0000EF0FCFE054612F0C6F9FFF7B9FF01E044
:1049E000012070BD0020FCE710B503211420FFF763
:1049F000BCFF10BD10B50F210120FFF746FF0F21AE
:104A00000120FFF742FF01200EF0E0FE044612F005
:104A1000AAF93D211120FFF738FF1E212D20FFF7B5
:104A200034FF00212C20FFF730FF8D212A20FFF7D3
:104A30002CFF3E212B20FFF728FF40211520FFF7F8
:104A400024FF002010BD1CB5FFF7C0FE6BA00EF0C8
:104A5000EBFE774908600846006810B94FF0FF3058
:104A60001CBD08208DF8010004208DF8000071485D
:104A7000019069466E48006819F0E6F901206E4918
:104A800008600EF0A3FE044612F06DF900206B4999
:104A9000C1F8A00101200EF099FE044612F063F95E
:104AA0000120654908600EF091FE044612F05BF9A2
:104AB0005F4800685D490860FFF79CFFFFF794FFBF
:104AC00002200EF083FE044612F04DF9FFF740FF7E
:104AD0004120FFF758FF4EA00EF0A6FE584908608F
:104AE0000846006810B94FF0FF30B9E708208DF88C
:104AF000010004208DF800004E480190694650489E
:104B0000006819F0A1F901204B49083908600EF03E
:104B10005DFE044612F027F900204849C1F89801CB
:104B200001200EF053FE044612F01DF90120424907
:104B3000083908600EF04AFE044612F014F94048A5
:104B400000683A490860FFF755FFFFF74DFF022064
:104B50000EF03CFE044612F006F9FFF7F9FE412084
:104B6000FFF711FF00207BE710B5FFF743FFFFF7CA
:104B70003BFF02200EF02AFE044612F0F4F8FFF785
:104B8000E7FE10BD2DE9FE4F0646884691469A463F
:104B9000DDF830B0022002900020019000900C2E31
:104BA00006D00E2E09D1122001901020009005E0B1
:104BB000772001903020009000E000BF00BF0198F6
:104BC00040F080010220FFF760FE80210420FFF703
:104BD000CCFE00210120FFF758FE80210A20FFF7BC
:104BE000A9FE002535E0000000200140000C014036
:104BF000BC00002053504932000000005246494496
:104C00005F494E00E04A002000080140C400002037
:104C1000524649445F4F555400000000344B002079
:104C2000BA000020CC4A0020B8000020AC000020D0
:104C3000B000002080969800A00124420000244289
:104C4000B400002018F805100920FFF71EFE681CAC
:104C500085B24D45F6DB31460120FFF716FE0C2EDE
:104C600003D180210D20FFF765FE4FF4807500BF52
:104C70000420FFF72DFE0446681E85B235B104F00E
:104C8000010018B9009820400028F1D080210D20A3
:104C9000FFF76BFE002D38D00620FFF719FE00F05D
:104CA0001B0078BB002002900198204000F001001A
:104CB00008B1012002900C2E27D10A20FFF708FE30
:104CC00004460C20FFF704FE00F007072FB1601E1A
:104CD00007EBC0008BF8000003E0E006000E8BF845
:104CE000000004B90124122C00DD1224002506E086
:104CF0000920FFF7EDFD0AF80500681C85B2A54202
:104D0000F6DB02E0FFE70220029080210C20FFF793
:104D100011FE00210120FFF7B8FD0298BDE8FE8FCB
:104D200070B588B005460C4608210846FFF71DFE01
:104D300007210D20FFF7A9FD03211420FFF7FAFD3D
:104D40008DF8085007A802AB012202A900900C20A0
:104D5000FFF718FF064656B99DF81C00102806D12B
:104D60009DF8080020709DF80900607000E00226A0
:104D7000304608B070BDF0B587B005460027082161
:104D80000846FFF7F2FD00210D20FFF77EFD802190
:104D90000E20FFF7EAFD93208DF8040020208DF807
:104DA000050006A801AB022201A900900C20FFF724
:104DB000E9FE064686B9002407E001A8005D2855F3
:104DC00001A8005D4740601CC4B2042CF5DB01A8BB
:104DD000005DB84200D0022680210E20FFF7AAFD18
:104DE000304607B0F0BD2DE9F0410746884615462C
:104DF00004210520FFF7B9FD00210120FFF745FD43
:104E000080210A20FFF796FD002405E0395D092086
:104E1000FFF73BFD601CC4B24445F7DB03210120D2
:104E2000FFF733FDFF2400BF0520FFF751FD0646C5
:104E3000601EC4B21CB106F004000028F4D0222089
:104E4000FFF746FD28702120FFF742FD6870BDE89E
:104E5000F08170B588B0054693208DF80800702069
:104E60008DF8090000208DF80E0000240BE0295D6C
:104E700002AAA01C11549DF80E00295D48408DF82F
:104E80000E00601CC4B2042CF1DB0DF10F020721EF
:104E900002A8FFF7A8FF08210846FFF766FD07A84C
:104EA00002AB092202A900900C20FFF76BFE064618
:104EB0002EB99DF81C00182801D1002600E002261A
:104EC000304608B070BD2DE9F04188B004460D466B
:104ED00016461F468DF808408DF809503068CDF809
:104EE0000A00B088ADF80E003868049007A802AB3D
:104EF0000C2202A900900E20FFF744FE8046B8F174
:104F0000000F05D10820FFF7E3FC00F0080008B906
:104F10004FF00208404608B0BDE8F081F0B587B018
:104F200005460E4630208DF804008DF805500DF131
:104F30000602022101A8FFF756FF06A801AB0422D2
:104F400001A900900C20FFF71DFE07466FB99DF8E0
:104F50001800902809D1002404E001A8005D305514
:104F6000601CC4B2102CF8DB00E00227384607B002
:104F7000F0BDF0B587B006460F46A0208DF80400BE
:104F80008DF805600DF10602022101A8FFF72BFF45
:104F900006A801AB042201A900900C20FFF7F2FD46
:104FA00005464DB99DF81800042805D19DF8040068
:104FB00000F00F000A2800D0022515BB002404E0F1
:104FC000385D01A90855601CC4B2102CF8DB05AA95
:104FD000102101A8FFF707FF06A801AB122201A9C3
:104FE00000900C20FFF7CEFD05464DB99DF8180046
:104FF000042805D19DF8040000F00F000A2800D015
:105000000225284607B0F0BD10B588B050208DF8B5
:10501000080000208DF809000DF10A02022102A803
:10502000FFF7E1FE07A802AB042202A900900C20C2
:10503000FFF7A8FD044600BF002008B010BDF0B582
:1050400087B006460D4617468DF804608DF805506A
:105050000DF10602022101A8FFF7C5FE06A801AB6B
:10506000042201A900900C20FFF78CFD04464CB9E6
:105070009DF81800042805D19DF8040000F00F00E9
:105080000A2800D00224A4B93868019002AA042199
:1050900001A8FFF7A8FE0020069006A801AB062293
:1050A00001A900900C20FFF76DFD0446022C00D0F2
:1050B0000024FCB9B0208DF804008DF805500DF1E6
:1050C0000602022101A8FFF78EFE06A801AB04220A
:1050D00001A900900C20FFF755FD04464CB99DF83E
:1050E0001800042805D19DF8040000F00F000A28DC
:1050F00000D00224204607B0F0BD70B588B0054648
:105100000E46C2208DF808008DF809500DF10A02F4
:10511000022102A8FFF767FE07A802AB042202A93A
:1051200000900C20FFF72EFD04464CB99DF81C00A2
:10513000042805D19DF8080000F00F000A2800D0CF
:105140000224CCB900208DF808008DF809008DF8F4
:105150000A008DF80B0003AA042102A8FFF743FE02
:1051600007A802AB062202A900900C20FFF70AFD57
:105170000446022C00D0002414B1022008B070BDF7
:10518000B0208DF808008DF809600DF10A020221A7
:1051900002A8FFF728FE07A802AB042202A900908C
:1051A0000C20FFF7EFFC04464CB99DF81C000428C6
:1051B00005D19DF8080000F00F000A2800D0022455
:1051C0002046DBE710B50246002034E0135C1B11DB
:1051D00001F8103011F81030092B05DD11F81030EE
:1051E000373301F8103004E011F81030303301F893
:1051F0001030135C03F00F03012404EB40040B5543
:10520000012303EB4003CB5C092B09DD012303EBF6
:105210004003CB5C3733012404EB40040B5508E01A
:10522000012303EB4003CB5C3033012404EB400447
:105230000B55431CD8B20428C8DB00230B7210BDE9
:1052400070B504460F495220FFF76AFD05461DB9A7
:105250000D48FFF790FD05468DB902250A48C07834
:105260000949897800EB01200749497800EB0140A2
:105270000549097800EB01602060002070BD4FF007
:10528000FF30FBE7A4000020A600002008B50121A4
:10529000082006F00CFD4FF44070ADF8000010201F
:1052A0008DF8030003208DF80200694680480CF059
:1052B0001DF901207F4908607F49C1F8A00108BDA0
:1052C00008B54FF47A70009000BF0098411E00911D
:1052D0000028FAD108BD00B57548001D006820F00F
:1052E000F0007349091D08600846006840F030006E
:1052F000086001206F4908606F49C1F8A001FFF7FD
:10530000DFFF00206B490860FFF7DAFF00206A49E1
:10531000C1F8A001FFF7D4FF00BD00B56448001D2F
:10532000006820F0F0006249091D08600846006826
:1053300040F03000086000205E490860FFF7C0FFC1
:1053400001205D49C1F8A001FFF7BAFF01205949CA
:105350000860FFF7B5FF00BD00B502465448001DC8
:10536000006820F0F0005249091D086008460068F6
:1053700040F0300008601AB101204E49086002E098
:1053800000204C490860FFF79BFF01204949091F95
:105390000860FFF795FF00204749C1F8A001FFF71B
:1053A0008FFF00BD30B5024600244148001D006853
:1053B00020F0F0003E49091D08600846006840F0F2
:1053C00030000860002519E002F0800018B10120CB
:1053D0003849086002E0002036490860FFF770FF96
:1053E00001203449091F0860FFF76AFF0020324995
:1053F000C1F8A0015006020E681CC5B2082DE3DBFF
:1054000001202C4908602A48001D006820F0F000A7
:105410002749091D08600846006840F080000860C0
:10542000FFF74EFF01202449C1F8A001FFF748FF14
:105430002048803800682043C4B200201E49C1F8CB
:10544000A001204630BD10B5002201201949086096
:105450001748001D006820F0F0001549091D08607C
:105460000846006840F080000860002417E05006FD
:10547000020EFFF725FF01200E49091F0860FFF704
:105480001FFF0D48D0F8240108B142F001020020AE
:105490000849091F0860FFF713FF601CC4B2082CFD
:1054A000E5DB00200349091F0860104610BD00001D
:1054B000000C0140A481214200802142F0B585B05A
:1054C00006460C46B56C68460BF059F9607808281A
:1054D00003DC0020ADF804000AE06078102804DC4A
:1054E0004FF40060ADF8040002E0082005B0F0BD04
:1054F000BB4A6168914200D91146BA4FEB6FBB427B
:1055000002D1B94B186802E0B74B1B685808B1EBE1
:10551000500F03D30023ADF80C302CE0B1EB900F0B
:1055200003D30823ADF80C3025E0B1EBD00F03D343
:105530001023ADF80C301EE0B1EB101F03D318237D
:10554000ADF80C3017E0B1EB501F03D32023ADF8BA
:105550000C3010E0B1EB901F03D32823ADF80C30D2
:1055600009E0B1EBD01F03D33023ADF80C3002E0DB
:105570003823ADF80C30207800F0020018B102207A
:10558000ADF8060002E00020ADF80600207800F03B
:10559000010018B10120ADF8080002E00020ADF8CC
:1055A0000800207800F0040018B10020ADF80E00CB
:1055B00002E08020ADF80E000020ADF800004FF4AE
:1055C0008270ADF802004FF40070ADF80A000720B9
:1055D000ADF81000E86F0AF021FF6946E86F0AF0A5
:1055E00051FF0121E86F0BF0E0F80021E86F0BF0AC
:1055F00081FA00207AE72DE9FC5F05460C46A86C8D
:10560000019005F14C090198C06F00906E6CD4F8C0
:1056100008A0207C00F0010018B1B18830680CF0BF
:105620006DF999F8010008282BDC2768D4F804806C
:1056300021E04FF0FF0B0FB117F801BB00BF0221B3
:1056400000980BF0E8FA0028F9D0594600980BF0C2
:1056500091F900BF012100980BF0DDFA0028F9D084
:1056600000980BF09CF900F0FF0BB8F1000F01D08F
:1056700008F801BB00BFBAF10000AAF1010AD8D1B5
:105680002EE099F8010010282ADC2768D4F804805D
:1056900020E04FF0FF0B0FB137F802BB00BF022133
:1056A00000980BF0B8FA0028F9D0594600980BF092
:1056B00061F900BF012100980BF0ADFA0028F9D084
:1056C00000980BF06CF98346B8F1000F01D028F870
:1056D00002BB00BFBAF10000AAF1010AD9D100BF94
:1056E000207CC0F3400018B1B18830680CF0DBF8C2
:1056F000A068BDE8FC9F10B50121042006F0D7FA90
:105700000121080306F0D3FA0121082006F0CFFAA0
:105710000121880306F0F4FA0121082006F0C7FAF7
:105720000121C80306F0ECFA10BD08B5E020ADF881
:10573000000018208DF8030003208DF80200694650
:105740002A480BF0D3FEE02128480CF0ACF84FF4C7
:105750006040ADF8000018208DF8030003208DF89C
:105760000200694622480BF0C1FE4FF46041204818
:105770000CF099F83820ADF8000018208DF80300DF
:1057800003208DF80200694619480BF0AFFE4FF474
:10579000604117480CF087F808BD10B5FFF7ABFF64
:1057A000FFF7C3FF0F481349C867134A13A11148F5
:1057B00018F00CFB13481449C867144A14A1124886
:1057C00018F004FB012114480CF0C8F913481449DF
:1057D000C867144A14A1124818F0F8FA10BD000066
:1057E0000024F400003001401801002000080140AE
:1057F000000C0140884B0020E45206085350493108
:105800000000000000380040844C0020EC520608E4
:10581000535049320000000000023000003C0040BC
:10582000804D0020F4520608535049330000000018
:1058300000B597B001214FF4F07006F038FA01215D
:10584000080206F009FA4FF6B370ADF80000182010
:105850008DF8030003208DF8020069463E480BF0E6
:1058600045FE4FF68370ADF8000018208DF8030058
:1058700003208DF80200694638480BF037FE4FF2DE
:105880003F00ADF8000018208DF8030003208DF8CC
:105890000200694632480BF029FE40F23F60ADF845
:1058A000000018208DF8030003208DF802006946DF
:1058B0002C480BF01BFE0020019002900320039067
:1058C00000200490059006900790089009900A9097
:1058D00010200B9000200C900E900D900F901090C7
:1058E0004FF480501190002012901390149001A852
:1058F0001590169008A806F065FB0121002006F01F
:105900007BFF17B000BD10B506E004784FF0C04330
:105910005C54491C401C521E002AF6D110BD06E002
:105920004FF0C0435B5C00F8013B491C521E002A4B
:10593000F6D1704713B50C46012221466846FFF7A1
:10594000E2FF1CBD18B50446012221466846FFF758
:10595000E6FF9DF8000018BD00140140001801404A
:10596000001C01400020014030B5014600224FF0EC
:10597000E024A36901EBC104E10000BF4FF0E02483
:10598000A069984202D2D418221A05E0D4184FF028
:10599000E0256D692C44221A03468A42EED330BDBD
:1059A0004FF0C841088070474FF0C84148807047A9
:1059B00008B54FF0C84040880090BDF8000008BD11
:1059C0004FF0C84210805180704700B50246104623
:1059D000FFF7E6FFFFF7ECFF00BDF74800894FF047
:1059E000C841088070474FF0C8414880704730B5C3
:1059F000014601F01F04C1F34513CA0AE50205EB95
:105A000043151544A8B230BD00BF011EA0F101022C
:105A1000D0B2FAD1704710B503460C46E6488088EC
:105A200049F24131884205D0E348808845F210317F
:105A3000884214D1E0494889FFF7B2FF1812FFF7F6
:105A4000B3FFD8B2FFF7B0FFDB498889FFF7A8FFA3
:105A50002012FFF7A9FFE0B2FFF7A6FFABE0D648A0
:105A6000808846F6040188421DD1D34880790128F8
:105A700004D1D1480088401EC01A83B2CE4948895B
:105A8000FFF78EFF1812FFF78FFFD8B2FFF78CFFDA
:105A9000C9498889FFF784FF2012FFF785FFE0B22C
:105AA000FFF782FF87E0C448808841F6631188428F
:105AB00047D1C1488079A8B9BF480088401EC01AA4
:105AC00083B2BD494889FFF76BFF0020FFF76CFFE9
:105AD0000020FFF769FF1812FFF766FFD8B2FFF743
